S01500004469676974616C20436C6F636B2E7372656345
S11300000C942A000C94B8000C94E1000C94470062
S11300100C9447000C94D5090C9447000C944700A9
S11300200C9447000C9447000C94C6090C944700A8
S11300300C9447000C9447000C9447000C94470020
S11300400C9447000C9447000C9447000C94470010
S11300500C94470011241FBECFE5D8E0DEBFCDBF0E
S113006010E0A0E6B0E0EEE5F4E102C005900D92E8
S1130070AA3EB107D9F710E0AAEEB0E001C01D9284
S1130080A53FB107E1F70E94E6090C942D0A0C94F0
S11300900000FC01413019F1413078F4218181E004
S11300A090E002C0880F991F6A95E2F78095282393
S11300B021839281982392830895423009F0089510
S11300C0218181E090E002C0880F991F6A95E2F7D0
S11300D0282B21839281809589238283089521810D
S11300E081E090E002C0880F991F6A95E2F7982F8B
S11300F09095922391839281982B92830895FC0189
S1130100442361F4228181E090E002C0880F991FAA
S11301106A95E2F780958223828308954130E9F756
S1130120228181E090E002C0880F991F6A95E2F76E
S1130130282B22830895FC01208181E090E0062E83
S113014002C0880F991F0A94E2F730E082239323B8
S113015002C0959587956A95E2F70895FC0161833D
S11301600895FC0162830895FC01828180E0089572
S11301701F920F920FB60F9211242F933F934F9318
S11301805F936F937F938F939F93AF93BF93EF93FB
S1130190FF93E091EE00F091EF00309709F009959C
S11301A0FF91EF91BF91AF919F918F917F916F914B
S11301B05F914F913F912F910F900FBE0F901F9021
S11301C018951F920F920FB60F9211242F933F93FD
S11301D04F935F936F937F938F939F93AF93BF934B
S11301E0EF93FF93E091EC00F091ED00309709F06C
S11301F00995FF91EF91BF91AF919F918F917F915D
S11302006F915F914F913F912F910F900FBE0F907F
S11302101F9018958130F9F0813078F46130A1F1A4
S1130220613008F043C085B78E7F85BF85B78D7F69
S113023085BF8BB780648BBF0895823009F0089521
S11302406230B9F0633019F484B7806484BF8BB72B
S113025080628BBF0895613081F06130E0F485B72E
S11302608B7F85BF85B7877F85BF8BB780688BBF42
S1130270089584B78F7B84BFEACF85B7886085BF34
S113028085B78B7F85BFF1CF85B7816085BF85B783
S11302908D7F85BFCECF6230E1F0633031F785B713
S11302A0886085BF85B7846085BFDFCF623051F039
S11302B0633009F0BECF85B7816085BF85B78260A2
S11302C085BFB7CF85B78E7F85BF85B7826085BF71
S11302D0B0CF85B7877F85BF85B7846085BFC5CF1D
S11302E06623E9F47150743080F120E0873009F41A
S11302F07DC0883008F04DC0833009F471C084306B
S113030009F46BC0813009F460C0913009F44AC02B
S1130310923039F123BF8FB780688FBF0895613061
S1130320D1F771507430B8F020E0843009F464C01F
S11303308530E0F4823009F465C0833008F042C0AF
S11303408130F1F42160297F1BC0E72FF0E0E05AEF
S1130350FF4F2081CBCFE72FF0E0EC59FF4F2081F6
S1130360E4CF89B7826089BF23BFD5CF863009F433
S113037046C0863020F18730E1F1883009F42760E7
S1130380913031F1923099F025BD8FB780688FBFDD
S11303900895893041F1893078F08A3009F0B5CF79
S11303A02760B3CF89B7816089BF23BFB4CF89B732
S11303B0806889BF25BDE9CF287F2560A6CF23604B
S11303C02B7FDECF287F2260DBCF2160297F9DCF6A
S11303D089B7806489BF25BDD8CF23602B7F95CF93
S11303E0287F226092CF2E7F26608FCF2C7F2460BF
S11303F08CCF2E7F2660C4CF2C7F2460C1CF287F72
S11304002560BECF88E082BD287F2560B9CF6623F2
S113041011F44CBF0895613009F0089543BD089567
S1130420CF93C42F662379F42CBF86E390E063E076
S113043042E00E944900C230E1F0C33041F1C130D2
S113044069F1CF9108956130E1F723BD80E390E035
S113045067E042E00E944900C23039F1C33081F0C4
S1130460C13079F785B58F7D85BD85B5806185BD42
S1130470E8CF83B7806283BF83B78F7E83BFE1CF2A
S113048085B5806285BD85B5806185BDDACF83B7CA
S1130490806283BF83B7806183BFD3CF83B78F7DEF
S11304A083BF83B7806183BFCCCF85B5806285BDB0
S11304B085B58F7E85BDC5CFCF93C42F6623A9F4A0
S11304C02CBF86E390E063E042E00E944900C43020
S11304D019F1C53011F0CC2331F483B78F7E83BF7B
S11304E083B7806283BFCF9108956130E1F723BD64
S11304F080E390E067E042E00E944900C430A1F04C
S1130500C53011F0CC2379F785B58F7E85BD85B5CF
S1130510806285BDCF91089583B7806183BF83B71F
S1130520806283BFCF91089585B5806185BD85B50F
S1130530806285BDCF910895CF93C42F6623A9F41B
S11305402CBF86E390E063E042E00E944900C6309D
S113055021F0C73049F1CC2331F483B78F7E83BFB8
S113056083B7806283BFCF9108956130E1F723BDE3
S113057080E390E067E042E00E944900C63021F049
S1130580C73051F0CC2379F785B58F7E85BD85B50D
S1130590806285BDCF91089585B5806185BD85B59F
S11305A0806285BDCF91089583B7806183BF83B78F
S11305B0806283BFCF9108950F931F93CF93DF93EE
S11305C000D000D000D0CDB7DEB749835A836B8307
S11305D07C838D839E8309811A81C80142E00E9435
S11305E04900C8016C8142E00E944900C8016D8144
S11305F042E00E944900C8016E8142E00E94490025
S113060026960FB6F894DEBF0FBECDBFDF91CF9113
S11306101F910F910895EF92FF920F931F93CF9321
S1130620DF93CDB7DEB727970FB6F894DEBF0FBEC2
S1130630CDBF49835A836B837C838D839E830981D9
S11306401A81422F4170C8012F830E947F002F819D
S1130650E22EFF24A7014270507055954795C801BA
S11306606C810E947F00A701447050705595479596
S113067055954795C8016D810E947F00A701487078
S11306805070559547955595479555954795C8018B
S11306906E810E947F0027960FB6F894DEBF0FBECE
S11306A0CDBFDF91CF911F910F91FF90EF900895EF
S11306B0DF92EF92FF920F931F93CF93DF93EC019E
S11306C0162FF42ED22E0E949B008823C9F08FE7A8
S11306D092E3A2E081509040A040E1F700C0000006
S11306E0CE01612F0E949B00882309F047C080E05F
S11306F0DF91CF911F910F91FF90EF90DF900895BC
S1130700CE016F2D0E949B008823E1F08FE792E3D6
S1130710A2E081509040A040E1F700C00000CE016B
S11307206F2D0E949B00882311F3EE2DF0E0E1531E
S1130730FF4F8481DF91CF911F910F91FF90EF9034
S1130740DF900895CE016D2D0E949B00882319F13E
S11307508FE792E3A2E081509040A040E1F700C00F
S11307600000CE016D2D0E949B00882309F4BFCFA9
S1130770EE2DF0E0E153FF4F8085BACFEE2DF0E08F
S1130780E153FF4F8081DF91CF911F910F91FF9033
S1130790EF90DF900895CE01602F0E949B00882384
S11307A009F4A5CF8FE792E3A2E081509040A040E6
S11307B0E1F700C00000CE01602F0E949B00882357
S11307C009F495CFEE2DF0E0E153FF4F848590CFEF
S11307D00F931F93CF93DF93CDB7DEB72A970FB64E
S11307E0F894DEBF0FBECDBF09831A832B833C83ED
S11307F04D835E836F83788789879A8709811A81FD
S1130800C80160E00E94AE00C80160E00E94B1002F
S11308102A960FB6F894DEBF0FBECDBFDF91CF91FD
S11308201F910F9108955F926F927F928F929F9282
S1130830AF92BF92CF92DF92EF92FF920F931F93EA
S1130840CF93DF93CDB7DEB72A970FB6F894DEBF08
S11308500FBECDBF09831A83F22E2B83B32E3C83A4
S1130860A42E4D83152F5E83962E6F83872E788753
S113087089879A87C980DA80782E692EC60142E07A
S11308800E944900C601692D41E00E947F00C60113
S11308906F2D4B2D2A2D012FEE240E9458038823FF
S11308A009F09CC05524C601692D40E00E9449000E
S11308B08FE19EE40197F1F700C00000C601682DA6
S11308C042E00E944900C601682D41E00E947F0079
S11308D0C6016F2D4B2D2A2D012FEE24E3940E9487
S11308E05803882309F072C0C601682D40E00E94B5
S11308F049008FE19EE40197F1F700C00000C601B2
S1130900672D42E00E944900C601672D41E00E9424
S11309107F00C6016F2D4B2D2A2D012F52E0E52EAD
S11309200E945803882309F049C0C601672D40E09E
S11309300E9449008FE19EE40197F1F700C0000096
S1130940C601662D42E00E944900C601662D41E0C1
S11309500E947F00C6016F2D4B2D2A2D012F33E0FD
S1130960E32E0E945803882339F0C6016F2D4B2DC6
S11309702A2D0E945803582EC601662D40E00E947D
S113098049008FE19EE40197F1F700C00000852D36
S11309902A960FB6F894DEBF0FBECDBFDF91CF917C
S11309A01F910F91FF90EF90DF90CF90BF90AF9089
S11309B09F908F907F906F905F900895C6016F2DE8
S11309C04B2D2A2D0E945803582EAFCFC6016F2DF0
S11309D04B2D2A2D0E945803582E86CFC6016F2D09
S11309E04B2D2A2D0E945803582E5DCFD898D998A4
S11309F0EFE9FFE03197F1F700C00000DA9AEFE980
S1130A00FFE03197F1F700C000009BB39F709BBBE0
S1130A102BB3982F907F922B9BBBEFE9FFE031978C
S1130A20F1F700C00000DA98EFE9FFE03197F1F741
S1130A3000C00000DA9AEFE9FFE03197F1F700C057
S1130A4000009BB39F709BBB9BB38295807F892BD7
S1130A508BBB8FE99FE00197F1F700C00000DA98A3
S1130A60EFE9FFE03197F1F700C0000008958AB381
S1130A70806F8ABB8AB387608ABB82E00E94F604D7
S1130A8088E20E94F6048CE00E94F60481E00E9451
S1130A90F604089581E00E94F6040895D89AD9983E
S1130AA0EFE9FFE03197F1F700C00000DA9AEFE9CF
S1130AB0FFE03197F1F700C000009BB39F709BBB30
S1130AC02BB3982F907F922B9BBBEFE9FFE03197DC
S1130AD0F1F700C00000DA98EFE9FFE03197F1F791
S1130AE000C00000DA9AEFE9FFE03197F1F700C0A7
S1130AF000009BB39F709BBB9BB38295807F892B27
S1130B008BBB8FE99FE00197F1F700C00000DA98F2
S1130B10EFE9FFE03197F1F700C000000895CF93AB
S1130B20DF93EC018881882331F021960E944E05E1
S1130B3089918823D9F7DF91CF9108958130A1F06D
S1130B40813028F4862F80680E94F604089582304C
S1130B5081F0833021F080E80E94F6040895862F06
S1130B60806D0E94F6040895862F806C0E94F6041E
S1130B700895862F80690E94F60408950F931F93A9
S1130B80CF93DF93CDB7DEB765970FB6F894DEBF8A
S1130B900FBECDBFDC01CB01BE016F5F7F4F4AE0CA
S1130BA050E00E94F3098981882351F08E010E5F81
S1130BB01F4F0E944E05F80181918F018823C9F7C8
S1130BC065960FB6F894DEBF0FBECDBFDF91CF910F
S1130BD01F910F910895CF93DF93EC016830F8F4DF
S1130BE0862F80640E94F60488810E944E058981C4
S1130BF00E944E058A810E944E058B810E944E05FB
S1130C008C810E944E058D810E944E058E810E942A
S1130C104E058F810E944E0582E00E94F604DF910A
S1130C20CF9108950F931F930E9437050091DF0021
S1130C301091E0002091E1003091E2004091E30046
S1130C405091E4006091E5007091E6008091E70026
S1130C509091E8000E94E8034091C1005091C200C5
S1130C606091C3007091C4008091C5009091C6004A
S1130C700E94DC0283E390E060E042E00E944900CD
S1130C8083E390E061E042E00E94490083E390E066
S1130C9062E042E00E94490083E390E063E042E0C6
S1130CA00E94490083E390E064E042E00E9449002E
S1130CB083E390E065E042E00E9449006091CB004C
S1130CC07091CC008091CD009091CE000E94700173
S1130CD06091CB007091CC008091CD009091CE00BA
S1130CE04FE20E9407026091C7007091C800809192
S1130CF0C9009091CA000E94700188E690E00E94A9
S1130D008F0581E063E00E949E0587E790E00E94E2
S1130D108F051F910F9108950F931F93CF93CAE0EE
S1130D200091DF001091E0002091E1003091E20099
S1130D304091E3005091E4006091E5007091E60079
S1130D408091E7009091E8000E941304813309F434
S1130D5094C183E390E060E040E00E947F0083E37D
S1130D6090E061E040E00E947F0083E390E062E075
S1130D7040E00E947F0083E390E063E040E00E9453
S1130D807F0083E390E064E040E00E947F0083E31F
S1130D9090E065E041E00E947F008091F1006C2FBB
S1130DA00E94E709292F4091C1005091C20060912F
S1130DB0C3007091C4008091C5009091C6000E9448
S1130DC00B031092F0008091F0008823E1F383E399
S1130DD090E060E040E00E947F0083E390E061E007
S1130DE040E00E947F0083E390E062E040E00E94E4
S1130DF07F0083E390E063E040E00E947F0083E3B0
S1130E0090E064E041E00E947F0083E390E065E0CD
S1130E1040E00E947F008091F1006C2F0E94E7095E
S1130E20282F4091C1005091C2006091C30070917D
S1130E30C4008091C5009091C6000E940B031092DB
S1130E40F0008091F0008823E1F383E390E060E018
S1130E5040E00E947F0083E390E061E040E00E9474
S1130E607F0083E390E062E040E00E947F0083E340
S1130E7090E063E041E00E947F0083E390E064E05F
S1130E8040E00E947F0083E390E065E040E00E9440
S1130E907F008091F3006C2F0E94E709292F409175
S1130EA0C1005091C2006091C3007091C400809150
S1130EB0C5009091C6000E940B031092F00080912F
S1130EC0F0008823E1F383E390E060E040E00E94D7
S1130ED07F0083E390E061E040E00E947F0083E3D1
S1130EE090E062E041E00E947F0083E390E063E0F1
S1130EF040E00E947F0083E390E064E040E00E94D1
S1130F007F0083E390E065E040E00E947F008091F1
S1130F10F3006C2F0E94E709282F4091C1005091E3
S1130F20C2006091C3007091C4008091C50090918B
S1130F30C6000E940B031092F0008091F0008823F9
S1130F40E1F383E390E060E040E00E947F0083E30C
S1130F5090E061E041E00E947F0083E390E062E082
S1130F6040E00E947F0083E390E063E040E00E9461
S1130F707F0083E390E064E040E00E947F0083E32D
S1130F8090E065E040E00E947F008091F4006C2FC7
S1130F900E94E709292F4091C1005091C20060913D
S1130FA0C3007091C4008091C5009091C6000E9456
S1130FB00B031092F0008091F0008823E1F383E3A7
S1130FC090E060E041E00E947F0083E390E061E014
S1130FD040E00E947F0083E390E062E040E00E94F2
S1130FE07F0083E390E063E040E00E947F0083E3BE
S1130FF090E064E040E00E947F0083E390E065E0DD
S113100040E00E947F008091F4006C2F0E94E70969
S1131010282F4091C1005091C2006091C30070918B
S1131020C4008091C5009091C6000E940B031092E9
S1131030F0008091F0008823E1F38091F1008C337B
S1131040A0F48091F3008C3340F48091F400893152
S113105008F466CE1092F40063CE1092F3008091EF
S1131060F4008F5F8093F400F2CF1092F10080912E
S1131070F3008F5F8093F300E6CF0E944A0581E876
S113108090E00E948F0580E06BE00E949E058091B5
S1131090F2008823D1F40091DF001091E000209148
S11310A0E1003091E2004091E3005091E40060914E
S11310B0E5007091E6008091E7009091E8000E94BD
S11310C013048093F200882331F3282F220F922FE8
S11310D0990F990F920F905E9093F4000E944E0521
S11310E080E06DE00E949E051092F2000091DF0006
S11310F01091E0002091E1003091E2004091E30082
S11311005091E4006091E5007091E6008091E70061
S11311109091E8000E9413048093F200882331F335
S11311209091F4009053980F9093F4000E944E0510
S113113081E060E00E949E051092F20080E990E058
S11311400E948F050091DF001091E0002091E100E2
S11311503091E2004091E3005091E4006091E50099
S11311607091E6008091E7009091E8000E941304DA
S11311708A3241F70E944A058FE990E00E948F0568
S113118080E06DE00E949E058091F2008823D1F4F6
S11311900091DF001091E0002091E1003091E20025
S11311A04091E3005091E4006091E5007091E60005
S11311B08091E7009091E8000E9413048093F2006C
S11311C0882331F3282F220F922F990F990F920F12
S11311D0905E9093F3000E944E0580E06FE00E94C1
S11311E09E051092F2000091DF001091E000209122
S11311F0E1003091E2004091E3005091E4006091FD
S1131200E5007091E6008091E7009091E8000E946B
S113121013048093F200882331F39091F3009053E8
S1131220980F9093F3000E944E0581E060E00E94C5
S11312309E051092F20080E990E00E948F050091D3
S1131240DF001091E0002091E1003091E200409134
S1131250E3005091E4006091E5007091E600809114
S1131260E7009091E8000E9413048A3241F70E943B
S11312704A0580EB90E00E948F0580E06DE00E94BB
S11312809E058091F2008823D1F40091DF00109133
S1131290E0002091E1003091E2004091E3005091A0
S11312A0E4006091E5007091E6008091E700909180
S11312B0E8000E9413048093F200882331F3282F5E
S11312C0220F922F990F990F920F905E9093F10035
S11312D00E944E0580E06FE00E949E051092F2008D
S11312E00091DF001091E0002091E1003091E200D4
S11312F04091E3005091E4006091E5007091E600B4
S11313008091E7009091E8000E9413048093F2001A
S1131310882331F39091F1009053980F9093F1004A
S11313200E944E0581E060E00E949E051092F2004A
S113133080E990E00E948F050091DF001091E000A9
S11313402091E1003091E2004091E3005091E400EB
S11313506091E5007091E6008091E7009091E800CB
S11313600E9413048A3241F70E944A0588E690E0FD
S11313700E948F0581E063E00E949E0587E790E06C
S11313800E948F05CF911F910F9108951F920F9284
S11313900FB60F9211248F9381E08093F0008F9108
S11313A00F900FBE0F901F9018951F920F920FB6BB
S11313B00F9211248F938091F1008F5F8093F1003D
S11313C08F910F900FBE0F901F901895FFCF991B10
S11313D079E004C0991F961708F0961B881F7A9528
S11313E0C9F780950895FB019F01423074F045329E
S11313F064F4642F77270E94190A805D8A330CF005
S1131400895D8193CB010097A1F71082C9010C94E7
S1131410090ADC01FC01672F71917723E1F7329708
S113142004C07C916D9370836291AE17BF07C8F3BB
S11314300895AA1BBB1B51E107C0AA1FBB1FA61717
S1131440B70710F0A61BB70B881F991F5A95A9F769
S111145080959095BC01CD010895F894FFCFCE
S113145E0800484008004840746F20736574757026
S113146E20436C6F636B0070726573732027312792
S113147E0053657420486F7572203A205F205F0018
S113148E4E65787420707265737320272A27005373
S113149E6574204D696E757465203A205F205F0077
S11314AE536574205365636F6E64203A205F205F2A
S11314BE00300000010203010002010001080231A4
S11314CE32334134353642373839432A30234436A1
S10D14DE00000102030405060700E4
S9030000FC
